{"abi":[{"type":"constructor","inputs":[{"name":"_name","type":"string","internalType":"string"},{"name":"_symbol","type":"string","internalType":"string"},{"name":"_decimals","type":"uint8","internalType":"uint8"},{"name":"_initialSupply","type":"uint256","internalType":"uint256"}],"stateMutability":"nonpayable"},{"type":"function","name":"addBurner","inputs":[{"name":"account","type":"address","internalType":"address"}],"outputs":[],"stateMutability":"nonpayable"},{"type":"function","name":"addMinter","inputs":[{"name":"account","type":"address","internalType":"address"}],"outputs":[],"stateMutability":"nonpayable"},{"type":"function","name":"addPauser","inputs":[{"name":"account","type":"address","internalType":"address"}],"outputs":[],"stateMutability":"nonpayable"},{"type":"function","name":"addToBlacklist","inputs":[{"name":"account","type":"address","internalType":"address"}],"outputs":[],"stateMutability":"nonpayable"},{"type":"function","name":"allowance","inputs":[{"name":"","type":"address","internalType":"address"},{"name":"","type":"address","internalType":"address"}],"outputs":[{"name":"","type":"uint256","internalType":"uint256"}],"stateMutability":"view"},{"type":"function","name":"approve","inputs":[{"name":"spender","type":"address","internalType":"address"},{"name":"amount","type":"uint256","internalType":"uint256"}],"outputs":[{"name":"","type":"bool","internalType":"bool"}],"stateMutability":"nonpayable"},{"type":"function","name":"balanceOf","inputs":[{"name":"","type":"address","internalType":"address"}],"outputs":[{"name":"","type":"uint256","internalType":"uint256"}],"stateMutability":"view"},{"type":"function","name":"balanceOfAt","inputs":[{"name":"account","type":"address","internalType":"address"},{"name":"snapshotId","type":"uint256","internalType":"uint256"}],"outputs":[{"name":"","type":"uint256","internalType":"uint256"}],"stateMutability":"view"},{"type":"function","name":"blacklisted","inputs":[{"name":"","type":"address","internalType":"address"}],"outputs":[{"name":"","type":"bool","internalType":"bool"}],"stateMutability":"view"},{"type":"function","name":"burn","inputs":[{"name":"amount","type":"uint256","internalType":"uint256"}],"outputs":[],"stateMutability":"nonpayable"},{"type":"function","name":"burnFrom","inputs":[{"name":"account","type":"address","internalType":"address"},{"name":"amount","type":"uint256","internalType":"uint256"}],"outputs":[],"stateMutability":"nonpayable"},{"type":"function","name":"burners","inputs":[{"name":"","type":"address","internalType":"address"}],"outputs":[{"name":"","type":"bool","internalType":"bool"}],"stateMutability":"view"},{"type":"function","name":"currentSnapshotId","inputs":[],"outputs":[{"name":"","type":"uint256","internalType":"uint256"}],"stateMutability":"view"},{"type":"function","name":"decimals","inputs":[],"outputs":[{"name":"","type":"uint8","internalType":"uint8"}],"stateMutability":"view"},{"type":"function","name":"decreaseAllowance","inputs":[{"name":"spender","type":"address","internalType":"address"},{"name":"subtractedValue","type":"uint256","internalType":"uint256"}],"outputs":[{"name":"","type":"bool","internalType":"bool"}],"stateMutability":"nonpayable"},{"type":"function","name":"increaseAllowance","inputs":[{"name":"spender","type":"address","internalType":"address"},{"name":"addedValue","type":"uint256","internalType":"uint256"}],"outputs":[{"name":"","type":"bool","internalType":"bool"}],"stateMutability":"nonpayable"},{"type":"function","name":"isBlacklisted","inputs":[{"name":"account","type":"address","internalType":"address"}],"outputs":[{"name":"","type":"bool","internalType":"bool"}],"stateMutability":"view"},{"type":"function","name":"isBurner","inputs":[{"name":"account","type":"address","internalType":"address"}],"outputs":[{"name":"","type":"bool","internalType":"bool"}],"stateMutability":"view"},{"type":"function","name":"isMinter","inputs":[{"name":"account","type":"address","internalType":"address"}],"outputs":[{"name":"","type":"bool","internalType":"bool"}],"stateMutability":"view"},{"type":"function","name":"isPauser","inputs":[{"name":"account","type":"address","internalType":"address"}],"outputs":[{"name":"","type":"bool","internalType":"bool"}],"stateMutability":"view"},{"type":"function","name":"mint","inputs":[{"name":"to","type":"address","internalType":"address"},{"name":"amount","type":"uint256","internalType":"uint256"}],"outputs":[],"stateMutability":"nonpayable"},{"type":"function","name":"minters","inputs":[{"name":"","type":"address","internalType":"address"}],"outputs":[{"name":"","type":"bool","internalType":"bool"}],"stateMutability":"view"},{"type":"function","name":"name","inputs":[],"outputs":[{"name":"","type":"string","internalType":"string"}],"stateMutability":"view"},{"type":"function","name":"owner","inputs":[],"outputs":[{"name":"","type":"address","internalType":"address"}],"stateMutability":"view"},{"type":"function","name":"pause","inputs":[],"outputs":[],"stateMutability":"nonpayable"},{"type":"function","name":"paused","inputs":[],"outputs":[{"name":"","type":"bool","internalType":"bool"}],"stateMutability":"view"},{"type":"function","name":"pausers","inputs":[{"name":"","type":"address","internalType":"address"}],"outputs":[{"name":"","type":"bool","internalType":"bool"}],"stateMutability":"view"},{"type":"function","name":"removeBurner","inputs":[{"name":"account","type":"address","internalType":"address"}],"outputs":[],"stateMutability":"nonpayable"},{"type":"function","name":"removeFromBlacklist","inputs":[{"name":"account","type":"address","internalType":"address"}],"outputs":[],"stateMutability":"nonpayable"},{"type":"function","name":"removeMinter","inputs":[{"name":"account","type":"address","internalType":"address"}],"outputs":[],"stateMutability":"nonpayable"},{"type":"function","name":"removePauser","inputs":[{"name":"account","type":"address","internalType":"address"}],"outputs":[],"stateMutability":"nonpayable"},{"type":"function","name":"snapshot","inputs":[],"outputs":[{"name":"","type":"uint256","internalType":"uint256"}],"stateMutability":"nonpayable"},{"type":"function","name":"snapshotBalance","inputs":[{"name":"","type":"uint256","internalType":"uint256"},{"name":"","type":"address","internalType":"address"}],"outputs":[{"name":"","type":"uint256","internalType":"uint256"}],"stateMutability":"view"},{"type":"function","name":"snapshotTotalSupply","inputs":[{"name":"","type":"uint256","internalType":"uint256"}],"outputs":[{"name":"","type":"uint256","internalType":"uint256"}],"stateMutability":"view"},{"type":"function","name":"symbol","inputs":[],"outputs":[{"name":"","type":"string","internalType":"string"}],"stateMutability":"view"},{"type":"function","name":"totalSupply","inputs":[],"outputs":[{"name":"","type":"uint256","internalType":"uint256"}],"stateMutability":"view"},{"type":"function","name":"totalSupplyAt","inputs":[{"name":"snapshotId","type":"uint256","internalType":"uint256"}],"outputs":[{"name":"","type":"uint256","internalType":"uint256"}],"stateMutability":"view"},{"type":"function","name":"transfer","inputs":[{"name":"to","type":"address","internalType":"address"},{"name":"amount","type":"uint256","internalType":"uint256"}],"outputs":[{"name":"","type":"bool","internalType":"bool"}],"stateMutability":"nonpayable"},{"type":"function","name":"transferFrom","inputs":[{"name":"from","type":"address","internalType":"address"},{"name":"to","type":"address","internalType":"address"},{"name":"amount","type":"uint256","internalType":"uint256"}],"outputs":[{"name":"","type":"bool","internalType":"bool"}],"stateMutability":"nonpayable"},{"type":"function","name":"unpause","inputs":[],"outputs":[],"stateMutability":"nonpayable"},{"type":"event","name":"Approval","inputs":[{"name":"owner","type":"address","indexed":true,"internalType":"address"},{"name":"spender","type":"address","indexed":true,"internalType":"address"},{"name":"value","type":"uint256","indexed":false,"internalType":"uint256"}],"anonymous":false},{"type":"event","name":"Blacklisted","inputs":[{"name":"account","type":"address","indexed":true,"internalType":"address"}],"anonymous":false},{"type":"event","name":"Burn","inputs":[{"name":"from","type":"address","indexed":true,"internalType":"address"},{"name":"amount","type":"uint256","indexed":false,"internalType":"uint256"}],"anonymous":false},{"type":"event","name":"Mint","inputs":[{"name":"to","type":"address","indexed":true,"internalType":"address"},{"name":"amount","type":"uint256","indexed":false,"internalType":"uint256"}],"anonymous":false},{"type":"event","name":"MinterAdded","inputs":[{"name":"account","type":"address","indexed":true,"internalType":"address"}],"anonymous":false},{"type":"event","name":"MinterRemoved","inputs":[{"name":"account","type":"address","indexed":true,"internalType":"address"}],"anonymous":false},{"type":"event","name":"Paused","inputs":[],"anonymous":false},{"type":"event","name":"Snapshot","inputs":[{"name":"snapshotId","type":"uint256","indexed":true,"internalType":"uint256"},{"name":"totalSupply","type":"uint256","indexed":false,"internalType":"uint256"}],"anonymous":false},{"type":"event","name":"Transfer","inputs":[{"name":"from","type":"address","indexed":true,"internalType":"address"},{"name":"to","type":"address","indexed":true,"internalType":"address"},{"name":"value","type":"uint256","indexed":false,"internalType":"uint256"}],"anonymous":false},{"type":"event","name":"Unblacklisted","inputs":[{"name":"account","type":"address","indexed":true,"internalType":"address"}],"anonymous":false},{"type":"event","name":"Unpaused","inputs":[],"anonymous":false}],"bytecode":{"object":"0x608060405234801562000010575f80fd5b5060405162003ce138038062003ce1833981810160405281019062000036919062000477565b835f908162000046919062000752565b50826001908162000058919062000752565b508160025f6101000a81548160ff021916908360ff16021790555033600960016101000a81548173ffffffffffffffffffffffffffffffffffffffff021916908373ffffffffffffffffffffffffffffffffffffffff1602179055506001600a5f3373ffffffffffffffffffffffffffffffffffffffff1673ffffffffffffffffffffffffffffffffffffffff1681526020019081526020015f205f6101000a81548160ff0219169083151502179055506001600b5f3373ffffffffffffffffffffffffffffffffffffffff1673ffffffffffffffffffffffffffffffffffffffff1681526020019081526020015f205f6101000a81548160ff0219169083151502179055506001600c5f3373ffffffffffffffffffffffffffffffffffffffff1673ffffffffffffffffffffffffffffffffffffffff1681526020019081526020015f205f6101000a81548160ff0219169083151502179055505f8111156200026d578060045f3373ffffffffffffffffffffffffffffffffffffffff1673ffffffffffffffffffffffffffffffffffffffff1681526020019081526020015f2081905550806003819055503373ffffffffffffffffffffffffffffffffffffffff165f73ffffffffffffffffffffffffffffffffffffffff167fddf252ad1be2c89b69c2b068fc378daa952ba7f163c4a11628f55a4df523b3ef8360405162000264919062000847565b60405180910390a35b60016008819055505050505062000862565b5f604051905090565b5f80fd5b5f80fd5b5f80fd5b5f80fd5b5f601f19601f8301169050919050565b7f4e487b71000000000000000000000000000000000000000000000000000000005f52604160045260245ffd5b620002e08262000298565b810181811067ffffffffffffffff82111715620003025762000301620002a8565b5b80604052505050565b5f620003166200027f565b9050620003248282620002d5565b919050565b5f67ffffffffffffffff821115620003465762000345620002a8565b5b620003518262000298565b9050602081019050919050565b5f5b838110156200037d57808201518184015260208101905062000360565b5f8484015250505050565b5f6200039e620003988462000329565b6200030b565b905082815260208101848484011115620003bd57620003bc62000294565b5b620003ca8482856200035e565b509392505050565b5f82601f830112620003e957620003e862000290565b5b8151620003fb84826020860162000388565b91505092915050565b5f60ff82169050919050565b6200041b8162000404565b811462000426575f80fd5b50565b5f81519050620004398162000410565b92915050565b5f819050919050565b62000453816200043f565b81146200045e575f80fd5b50565b5f81519050620004718162000448565b92915050565b5f805f806080858703121562000492576200049162000288565b5b5f85015167ffffffffffffffff811115620004b257620004b16200028c565b5b620004c087828801620003d2565b945050602085015167ffffffffffffffff811115620004e457620004e36200028c565b5b620004f287828801620003d2565b9350506040620005058782880162000429565b9250506060620005188782880162000461565b91505092959194509250565b5f81519050919050565b7f4e487b71000000000000000000000000000000000000000000000000000000005f52602260045260245ffd5b5f60028204905060018216806200057357607f821691505b6020821081036200058957620005886200052e565b5b50919050565b5f819050815f5260205f209050919050565b5f6020601f8301049050919050565b5f82821b905092915050565b5f60088302620005ed7fffffffffffffffffffffffffffffffffffffffffffffffffffffffffffffffff82620005b0565b620005f98683620005b0565b95508019841693508086168417925050509392505050565b5f819050919050565b5f6200063a620006346200062e846200043f565b62000611565b6200043f565b9050919050565b5f819050919050565b62000655836200061a565b6200066d620006648262000641565b848454620005bc565b825550505050565b5f90565b6200068362000675565b620006908184846200064a565b505050565b5b81811015620006b757620006ab5f8262000679565b60018101905062000696565b5050565b601f8211156200070657620006d0816200058f565b620006db84620005a1565b81016020851015620006eb578190505b62000703620006fa85620005a1565b83018262000695565b50505b505050565b5f82821c905092915050565b5f620007285f19846008026200070b565b1980831691505092915050565b5f62000742838362000717565b9150826002028217905092915050565b6200075d8262000524565b67ffffffffffffffff811115620007795762000778620002a8565b5b6200078582546200055b565b62000792828285620006bb565b5f60209050601f831160018114620007c8575f8415620007b3578287015190505b620007bf858262000735565b8655506200082e565b601f198416620007d8866200058f565b5f5b828110156200080157848901518255600182019150602085019450602081019050620007da565b868310156200082157848901516200081d601f89168262000717565b8355505b6001600288020188555050505b505050505050565b62000841816200043f565b82525050565b5f6020820190506200085c5f83018462000836565b92915050565b61347180620008705f395ff3fe608060405234801561000f575f80fd5b5060043610610246575f3560e01c806370a0823111610139578063981b24d0116100b6578063dbac26e91161007a578063dbac26e914610736578063dd62ed3e14610766578063f44637ba14610796578063f46eccc4146107b2578063fe575a87146107e257610246565b8063981b24d01461065a578063983b2d561461068a578063a457c2d7146106a6578063a9059cbb146106d6578063aa271e1a1461070657610246565b80638456cb59116100fd5780638456cb59146105d85780638da5cb5b146105e257806395d89b4114610600578063970875ce1461061e5780639711715a1461063c57610246565b806370a082311461051057806378f2ff2e1461054057806379cc67901461057057806380f51c121461058c57806382dc1ec4146105bc57610246565b806340c10f19116101c75780634ee2cd7e1161018b5780634ee2cd7e1461045a578063537df3b61461048a5780635c975abb146104a65780635ee7a942146104c45780636b2c0f55146104f457610246565b806340c10f19146103a657806342966c68146103c25780634334614a146103de57806344337ea11461040e57806346fbf68e1461042a57610246565b806323b872dd1161020e57806323b872dd146103025780633092afd514610332578063313ce5671461034e578063395093511461036c5780633f4ba83a1461039c57610246565b8063028468581461024a57806303d41e0e1461026657806306fdde0314610296578063095ea7b3146102b457806318160ddd146102e4575b5f80fd5b610264600480360381019061025f9190612c47565b610812565b005b610280600480360381019061027b9190612c47565b6108f9565b60405161028d9190612c8c565b60405180910390f35b61029e610916565b6040516102ab9190612d2f565b60405180910390f35b6102ce60048036038101906102c99190612d82565b6109a1565b6040516102db9190612c8c565b60405180910390f35b6102ec610a8e565b6040516102f99190612dcf565b60405180910390f35b61031c60048036038101906103179190612de8565b610a94565b6040516103299190612c8c565b60405180910390f35b61034c60048036038101906103479190612c47565b610fb5565b005b6103566110df565b6040516103639190612e53565b60405180910390f35b61038660048036038101906103819190612d82565b6110f1565b6040516103939190612c8c565b60405180910390f35b6103a46112d7565b005b6103c060048036038101906103bb9190612d82565b6113ae565b005b6103dc60048036038101906103d79190612e6c565b611588565b005b6103f860048036038101906103f39190612c47565b6117e1565b6040516104059190612c8c565b60405180910390f35b61042860048036038101906104239190612c47565b611833565b005b610444600480360381019061043f9190612c47565b61195e565b6040516104519190612c8c565b60405180910390f35b610474600480360381019061046f9190612d82565b6119b0565b6040516104819190612dcf565b60405180910390f35b6104a4600480360381019061049f9190612c47565b611a4b565b005b6104ae611b75565b6040516104bb9190612c8c565b60405180910390f35b6104de60048036038101906104d99190612e6c565b611b87565b6040516104eb9190612dcf565b60405180910390f35b61050e60048036038101906105099190612c47565b611b9c565b005b61052a60048036038101906105259190612c47565b611c83565b6040516105379190612dcf565b60405180910390f35b61055a60048036038101906105559190612e97565b611c98565b6040516105679190612dcf565b60405180910390f35b61058a60048036038101906105859190612d82565b611cb8565b005b6105a660048036038101906105a19190612c47565b611f12565b6040516105b39190612c8c565b60405180910390f35b6105d660048036038101906105d19190612c47565b611f2f565b005b6105e0612017565b005b6105ea6120e8565b6040516105f79190612ee4565b60405180910390f35b61060861210e565b6040516106159190612d2f565b60405180910390f35b61062661219a565b6040516106339190612dcf565b60405180910390f35b6106446121a0565b6040516106519190612dcf565b60405180910390f35b610674600480360381019061066f9190612e6c565b6122a2565b6040516106819190612dcf565b60405180910390f35b6106a4600480360381019061069f9190612c47565b612301565b005b6106c060048036038101906106bb9190612d82565b61242c565b6040516106cd9190612c8c565b60405180910390f35b6106f060048036038101906106eb9190612d82565b61265a565b6040516106fd9190612c8c565b60405180910390f35b610720600480360381019061071b9190612c47565b6129c1565b60405161072d9190612c8c565b60405180910390f35b610750600480360381019061074b9190612c47565b612a13565b60405161075d9190612c8c565b60405180910390f35b610780600480360381019061077b9190612efd565b612a30565b60405161078d9190612dcf565b60405180910390f35b6107b060048036038101906107ab9190612c47565b612a50565b005b6107cc60048036038101906107c79190612c47565b612b38565b6040516107d99190612c8c565b60405180910390f35b6107fc60048036038101906107f79190612c47565b612b55565b6040516108099190612c8c565b60405180910390f35b600960019054906101000a900473ffffffffffffffffffffffffffffffffffffffff1673ffffffffffffffffffffffffffffffffffffffff163373ffffffffffffffffffffffffffffffffffffffff16146108a2576040517f08c379a000000000000000000000000000000000000000000000000000000000815260040161089990612f85565b60405180910390fd5b5f600b5f8373ffffffffffffffffffffffffffffffffffffffff1673ffffffffffffffffffffffffffffffffffffffff1681526020019081526020015f205f6101000a81548160ff02191690831515021790555050565b600b602052805f5260405f205f915054906101000a900460ff1681565b5f805461092290612fd0565b80601f016020809104026020016040519081016040528092919081815260200182805461094e90612fd0565b80156109995780601f1061097057610100808354040283529160200191610999565b820191905f5260205f20905b81548152906001019060200180831161097c57829003601f168201915b505050505081565b5f8160055f3373ffffffffffffffffffffffffffffffffffffffff1673ffffffffffffffffffffffffffffffffffffffff1681526020019081526020015f205f8573ffffffffffffffffffffffffffffffffffffffff1673ffffffffffffffffffffffffffffffffffffffff1681526020019081526020015f20819055508273ffffffffffffffffffffffffffffffffffffffff163373ffffffffffffffffffffffffffffffffffffffff167f8c5be1e5ebec7d5bd14f71427d1e84f3dd0314c0f7b2291e5b200ac8c7c3b92584604051610a7c9190612dcf565b60405180910390a36001905092915050565b60035481565b5f60095f9054906101000a900460ff1615610ae4576040517f08c379a0000000000000000000000000000000000000000000000000000000008152600401610adb9061304a565b60405180910390fd5b83600d5f8273ffffffffffffffffffffffffffffffffffffffff1673ffffffffffffffffffffffffffffffffffffffff1681526020019081526020015f205f9054906101000a900460ff1615610b6f576040517f08c379a0000000000000000000000000000000000000000000000000000000008152600401610b66906130b2565b60405180910390fd5b83600d5f8273ffffffffffffffffffffffffffffffffffffffff1673ffffffffffffffffffffffffffffffffffffffff1681526020019081526020015f205f9054906101000a900460ff1615610bfa576040517f08c379a0000000000000000000000000000000000000000000000000000000008152600401610bf1906130b2565b60405180910390fd5b8360045f8873ffffffffffffffffffffffffffffffffffffffff1673ffffffffffffffffffffffffffffffffffffffff1681526020019081526020015f20541015610c7a576040517f08c379a0000000000000000000000000000000000000000000000000000000008152600401610c719061311a565b60405180910390fd5b8360055f8873ffffffffffffffffffffffffffffffffffffffff1673ffffffffffffffffffffffffffffffffffffffff1681526020019081526020015f205f3373ffffffffffffffffffffffffffffffffffffffff1673ffffffffffffffffffffffffffffffffffffffff1681526020019081526020015f20541015610d35576040517f08c379a0000000000000000000000000000000000000000000000000000000008152600401610d2c90613182565b60405180910390fd5b610d7c60045f8873ffffffffffffffffffffffffffffffffffffffff1673ffffffffffffffffffffffffffffffffffffffff1681526020019081526020015f205485612ba7565b60045f8873ffffffffffffffffffffffffffffffffffffffff1673ffffffffffffffffffffffffffffffffffffffff1681526020019081526020015f2081905550610e0460045f8773ffffffffffffffffffffffffffffffffffffffff1673ffffffffffffffffffffffffffffffffffffffff1681526020019081526020015f205485612bc8565b60045f8773ffffffffffffffffffffffffffffffffffffffff1673ffffffffffffffffffffffffffffffffffffffff1681526020019081526020015f2081905550610ec760055f8873ffffffffffffffffffffffffffffffffffffffff1673ffffffffffffffffffffffffffffffffffffffff1681526020019081526020015f205f3373ffffffffffffffffffffffffffffffffffffffff1673ffffffffffffffffffffffffffffffffffffffff1681526020019081526020015f205485612ba7565b60055f8873ffffffffffffffffffffffffffffffffffffffff1673ffffffffffffffffffffffffffffffffffffffff1681526020019081526020015f205f3373ffffffffffffffffffffffffffffffffffffffff1673ffffffffffffffffffffffffffffffffffffffff1681526020019081526020015f20819055508473ffffffffffffffffffffffffffffffffffffffff168673ffffffffffffffffffffffffffffffffffffffff167fddf252ad1be2c89b69c2b068fc378daa952ba7f163c4a11628f55a4df523b3ef86604051610fa09190612dcf565b60405180910390a36001925050509392505050565b600960019054906101000a900473ffffffffffffffffffffffffffffffffffffffff1673ffffffffffffffffffffffffffffffffffffffff163373ffffffffffffffffffffffffffffffffffffffff1614611045576040517f08c379a000000000000000000000000000000000000000000000000000000000815260040161103c90612f85565b60405180910390fd5b5f600a5f8373ffffffffffffffffffffffffffffffffffffffff1673ffffffffffffffffffffffffffffffffffffffff1681526020019081526020015f205f6101000a81548160ff0219169083151502179055508073ffffffffffffffffffffffffffffffffffffffff167fe94479a9f7e1952cc78f2d6baab678adc1b772d936c6583def489e524cb6669260405160405180910390a250565b60025f9054906101000a900460ff1681565b5f61117460055f3373ffffffffffffffffffffffffffffffffffffffff1673ffffffffffffffffffffffffffffffffffffffff1681526020019081526020015f205f8573ffffffffffffffffffffffffffffffffffffffff1673ffffffffffffffffffffffffffffffffffffffff1681526020019081526020015f205483612bc8565b60055f3373ffffffffffffffffffffffffffffffffffffffff1673ffffffffffffffffffffffffffffffffffffffff1681526020019081526020015f205f8573ffffffffffffffffffffffffffffffffffffffff1673ffffffffffffffffffffffffffffffffffffffff1681526020019081526020015f20819055508273ffffffffffffffffffffffffffffffffffffffff163373ffffffffffffffffffffffffffffffffffffffff167f8c5be1e5ebec7d5bd14f71427d1e84f3dd0314c0f7b2291e5b200ac8c7c3b92560055f3373ffffffffffffffffffffffffffffffffffffffff1673ffffffffffffffffffffffffffffffffffffffff1681526020019081526020015f205f8773ffffffffffffffffffffffffffffffffffffffff1673ffffffffffffffffffffffffffffffffffffffff1681526020019081526020015f20546040516112c59190612dcf565b60405180910390a36001905092915050565b600960019054906101000a900473ffffffffffffffffffffffffffffffffffffffff1673ffffffffffffffffffffffffffffffffffffffff163373ffffffffffffffffffffffffffffffffffffffff1614611367576040517f08c379a000000000000000000000000000000000000000000000000000000000815260040161135e90612f85565b60405180910390fd5b5f60095f6101000a81548160ff0219169083151502179055507fa45f47fdea8a1efdd9029a5691c7f759c32b7c698632b563573e155625d1693360405160405180910390a1565b600a5f3373ffffffffffffffffffffffffffffffffffffffff1673ffffffffffffffffffffffffffffffffffffffff1681526020019081526020015f205f9054906101000a900460ff16611437576040517f08c379a000000000000000000000000000000000000000000000000000000000815260040161142e906131ea565b60405180910390fd5b61147e60045f8473ffffffffffffffffffffffffffffffffffffffff1673ffffffffffffffffffffffffffffffffffffffff1681526020019081526020015f205482612bc8565b60045f8473ffffffffffffffffffffffffffffffffffffffff1673ffffffffffffffffffffffffffffffffffffffff1681526020019081526020015f20819055506114cb60035482612bc8565b6003819055508173ffffffffffffffffffffffffffffffffffffffff167f0f6798a560793a54c3bcfe86a93cde1e73087d944c0ea20544137d4121396885826040516115179190612dcf565b60405180910390a28173ffffffffffffffffffffffffffffffffffffffff165f73ffffffffffffffffffffffffffffffffffffffff167fddf252ad1be2c89b69c2b068fc378daa952ba7f163c4a11628f55a4df523b3ef8360405161157c9190612dcf565b60405180910390a35050565b600b5f3373ffffffffffffffffffffffffffffffffffffffff1673ffffffffffffffffffffffffffffffffffffffff1681526020019081526020015f205f9054906101000a900460ff16611611576040517f08c379a000000000000000000000000000000000000000000000000000000000815260040161160890613252565b60405180910390fd5b8060045f3373ffffffffffffffffffffffffffffffffffffffff1673ffffffffffffffffffffffffffffffffffffffff1681526020019081526020015f20541015611691576040517f08c379a00000000000000000000000000000000000000000000000000000000081526004016116889061311a565b60405180910390fd5b6116d860045f3373ffffffffffffffffffffffffffffffffffffffff1673ffffffffffffffffffffffffffffffffffffffff1681526020019081526020015f205482612ba7565b60045f3373ffffffffffffffffffffffffffffffffffffffff1673ffffffffffffffffffffffffffffffffffffffff1681526020019081526020015f208190555061172560035482612ba7565b6003819055503373ffffffffffffffffffffffffffffffffffffffff167fcc16f5dbb4873280815c1ee09dbd06736cffcc184412cf7a71a0fdb75d397ca5826040516117719190612dcf565b60405180910390a25f73ffffffffffffffffffffffffffffffffffffffff163373ffffffffffffffffffffffffffffffffffffffff167fddf252ad1be2c89b69c2b068fc378daa952ba7f163c4a11628f55a4df523b3ef836040516117d69190612dcf565b60405180910390a350565b5f600b5f8373ffffffffffffffffffffffffffffffffffffffff1673ffffffffffffffffffffffffffffffffffffffff1681526020019081526020015f205f9054906101000a900460ff169050919050565b600960019054906101000a900473ffffffffffffffffffffffffffffffffffffffff1673ffffffffffffffffffffffffffffffffffffffff163373ffffffffffffffffffffffffffffffffffffffff16146118c3576040517f08c379a00000000000000000000000000000000000000000000000000000000081526004016118ba90612f85565b60405180910390fd5b6001600d5f8373ffffffffffffffffffffffffffffffffffffffff1673ffffffffffffffffffffffffffffffffffffffff1681526020019081526020015f205f6101000a81548160ff0219169083151502179055508073ffffffffffffffffffffffffffffffffffffffff167fffa4e6181777692565cf28528fc88fd1516ea86b56da075235fa575af6a4b85560405160405180910390a250565b5f600c5f8373ffffffffffffffffffffffffffffffffffffffff1673ffffffffffffffffffffffffffffffffffffffff1681526020019081526020015f205f9054906101000a900460ff169050919050565b5f6008548211156119f6576040517f08c379a00000000000000000000000000000000000000000000000000000000081526004016119ed906132ba565b60405180910390fd5b60065f8381526020019081526020015f205f8473ffffffffffffffffffffffffffffffffffffffff1673ffffffffffffffffffffffffffffffffffffffff1681526020019081526020015f2054905092915050565b600960019054906101000a900473ffffffffffffffffffffffffffffffffffffffff1673ffffffffffffffffffffffffffffffffffffffff163373ffffffffffffffffffffffffffffffffffffffff1614611adb576040517f08c379a0000000000000000000000000000000000000000000000000000000008152600401611ad290612f85565b60405180910390fd5b5f600d5f8373ffffffffffffffffffffffffffffffffffffffff1673ffffffffffffffffffffffffffffffffffffffff1681526020019081526020015f205f6101000a81548160ff0219169083151502179055508073ffffffffffffffffffffffffffffffffffffffff167f7534c63860313c46c473e4e98328f37017e9674e2162faf1a3ad7a96236c3b7b60405160405180910390a250565b60095f9054906101000a900460ff1681565b6007602052805f5260405f205f915090505481565b600960019054906101000a900473ffffffffffffffffffffffffffffffffffffffff1673ffffffffffffffffffffffffffffffffffffffff163373ffffffffffffffffffffffffffffffffffffffff1614611c2c576040517f08c379a0000000000000000000000000000000000000000000000000000000008152600401611c2390612f85565b60405180910390fd5b5f600c5f8373ffffffffffffffffffffffffffffffffffffffff1673ffffffffffffffffffffffffffffffffffffffff1681526020019081526020015f205f6101000a81548160ff02191690831515021790555050565b6004602052805f5260405f205f915090505481565b6006602052815f5260405f20602052805f5260405f205f91509150505481565b600b5f3373ffffffffffffffffffffffffffffffffffffffff1673ffffffffffffffffffffffffffffffffffffffff1681526020019081526020015f205f9054906101000a900460ff16611d41576040517f08c379a0000000000000000000000000000000000000000000000000000000008152600401611d3890613252565b60405180910390fd5b8060045f8473ffffffffffffffffffffffffffffffffffffffff1673ffffffffffffffffffffffffffffffffffffffff1681526020019081526020015f20541015611dc1576040517f08c379a0000000000000000000000000000000000000000000000000000000008152600401611db89061311a565b60405180910390fd5b611e0860045f8473ffffffffffffffffffffffffffffffffffffffff1673ffffffffffffffffffffffffffffffffffffffff1681526020019081526020015f205482612ba7565b60045f8473ffffffffffffffffffffffffffffffffffffffff1673ffffffffffffffffffffffffffffffffffffffff1681526020019081526020015f2081905550611e5560035482612ba7565b6003819055508173ffffffffffffffffffffffffffffffffffffffff167fcc16f5dbb4873280815c1ee09dbd06736cffcc184412cf7a71a0fdb75d397ca582604051611ea19190612dcf565b60405180910390a25f73ffffffffffffffffffffffffffffffffffffffff168273ffffffffffffffffffffffffffffffffffffffff167fddf252ad1be2c89b69c2b068fc378daa952ba7f163c4a11628f55a4df523b3ef83604051611f069190612dcf565b60405180910390a35050565b600c602052805f5260405f205f915054906101000a900460ff1681565b600960019054906101000a900473ffffffffffffffffffffffffffffffffffffffff1673ffffffffffffffffffffffffffffffffffffffff163373ffffffffffffffffffffffffffffffffffffffff1614611fbf576040517f08c379a0000000000000000000000000000000000000000000000000000000008152600401611fb690612f85565b60405180910390fd5b6001600c5f8373ffffffffffffffffffffffffffffffffffffffff1673ffffffffffffffffffffffffffffffffffffffff1681526020019081526020015f205f6101000a81548160ff02191690831515021790555050565b600c5f3373ffffffffffffffffffffffffffffffffffffffff1673ffffffffffffffffffffffffffffffffffffffff1681526020019081526020015f205f9054906101000a900460ff166120a0576040517f08c379a000000000000000000000000000000000000000000000000000000000815260040161209790613322565b60405180910390fd5b600160095f6101000a81548160ff0219169083151502179055507f9e87fac88ff661f02d44f95383c817fece4bce600a3dab7a54406878b965e75260405160405180910390a1565b600960019054906101000a900473ffffffffffffffffffffffffffffffffffffffff1681565b6001805461211b90612fd0565b80601f016020809104026020016040519081016040528092919081815260200182805461214790612fd0565b80156121925780601f1061216957610100808354040283529160200191612192565b820191905f5260205f20905b81548152906001019060200180831161217557829003601f168201915b505050505081565b60085481565b5f600960019054906101000a900473ffffffffffffffffffffffffffffffffffffffff1673ffffffffffffffffffffffffffffffffffffffff163373ffffffffffffffffffffffffffffffffffffffff1614612231576040517f08c379a000000000000000000000000000000000000000000000000000000000815260040161222890612f85565b60405180910390fd5b61223e6008546001612bc8565b60088190555060035460075f60085481526020019081526020015f20819055506008547f492fbd8cfdd942203e99f6bc74253a1e1f5791b0644612279e778349f353b1986003546040516122929190612dcf565b60405180910390a2600854905090565b5f6008548211156122e8576040517f08c379a00000000000000000000000000000000000000000000000000000000081526004016122df906132ba565b60405180910390fd5b60075f8381526020019081526020015f20549050919050565b600960019054906101000a900473ffffffffffffffffffffffffffffffffffffffff1673ffffffffffffffffffffffffffffffffffffffff163373ffffffffffffffffffffffffffffffffffffffff1614612391576040517f08c379a000000000000000000000000000000000000000000000000000000000815260040161238890612f85565b60405180910390fd5b6001600a5f8373ffffffffffffffffffffffffffffffffffffffff1673ffffffffffffffffffffffffffffffffffffffff1681526020019081526020015f205f6101000a81548160ff0219169083151502179055508073ffffffffffffffffffffffffffffffffffffffff167f6ae172837ea30b801fbfcdd4108aa1d5bf8ff775444fd70256b44e6bf3dfc3f660405160405180910390a250565b5f8060055f3373ffffffffffffffffffffffffffffffffffffffff1673ffffffffffffffffffffffffffffffffffffffff1681526020019081526020015f205f8573ffffffffffffffffffffffffffffffffffffffff1673ffffffffffffffffffffffffffffffffffffffff1681526020019081526020015f20549050828110156124ec576040517f08c379a00000000000000000000000000000000000000000000000000000000081526004016124e39061338a565b60405180910390fd5b6124f68184612ba7565b60055f3373ffffffffffffffffffffffffffffffffffffffff1673ffffffffffffffffffffffffffffffffffffffff1681526020019081526020015f205f8673ffffffffffffffffffffffffffffffffffffffff1673ffffffffffffffffffffffffffffffffffffffff1681526020019081526020015f20819055508373ffffffffffffffffffffffffffffffffffffffff163373ffffffffffffffffffffffffffffffffffffffff167f8c5be1e5ebec7d5bd14f71427d1e84f3dd0314c0f7b2291e5b200ac8c7c3b92560055f3373ffffffffffffffffffffffffffffffffffffffff1673ffffffffffffffffffffffffffffffffffffffff1681526020019081526020015f205f8873ffffffffffffffffffffffffffffffffffffffff1673ffffffffffffffffffffffffffffffffffffffff1681526020019081526020015f20546040516126479190612dcf565b60405180910390a3600191505092915050565b5f60095f9054906101000a900460ff16156126aa576040517f08c379a00000000000000000000000000000000000000000000000000000000081526004016126a19061304a565b60405180910390fd5b33600d5f8273ffffffffffffffffffffffffffffffffffffffff1673ffffffffffffffffffffffffffffffffffffffff1681526020019081526020015f205f9054906101000a900460ff1615612735576040517f08c379a000000000000000000000000000000000000000000000000000000000815260040161272c906130b2565b60405180910390fd5b83600d5f8273ffffffffffffffffffffffffffffffffffffffff1673ffffffffffffffffffffffffffffffffffffffff1681526020019081526020015f205f9054906101000a900460ff16156127c0576040517f08c379a00000000000000000000000000000000000000000000000000000000081526004016127b7906130b2565b60405180910390fd5b8360045f3373ffffffffffffffffffffffffffffffffffffffff1673ffffffffffffffffffffffffffffffffffffffff1681526020019081526020015f20541015612840576040517f08c379a00000000000000000000000000000000000000000000000000000000081526004016128379061311a565b60405180910390fd5b61288760045f3373ffffffffffffffffffffffffffffffffffffffff1673ffffffffffffffffffffffffffffffffffffffff1681526020019081526020015f205485612ba7565b60045f3373ffffffffffffffffffffffffffffffffffffffff1673ffffffffffffffffffffffffffffffffffffffff1681526020019081526020015f208190555061290f60045f8773ffffffffffffffffffffffffffffffffffffffff1673ffffffffffffffffffffffffffffffffffffffff1681526020019081526020015f205485612bc8565b60045f8773ffffffffffffffffffffffffffffffffffffffff1673ffffffffffffffffffffffffffffffffffffffff1681526020019081526020015f20819055508473ffffffffffffffffffffffffffffffffffffffff163373ffffffffffffffffffffffffffffffffffffffff167fddf252ad1be2c89b69c2b068fc378daa952ba7f163c4a11628f55a4df523b3ef866040516129ad9190612dcf565b60405180910390a360019250505092915050565b5f600a5f8373ffffffffffffffffffffffffffffffffffffffff1673ffffffffffffffffffffffffffffffffffffffff1681526020019081526020015f205f9054906101000a900460ff169050919050565b600d602052805f5260405f205f915054906101000a900460ff1681565b6005602052815f5260405f20602052805f5260405f205f91509150505481565b600960019054906101000a900473ffffffffffffffffffffffffffffffffffffffff1673ffffffffffffffffffffffffffffffffffffffff163373ffffffffffffffffffffffffffffffffffffffff1614612ae0576040517f08c379a0000000000000000000000000000000000000000000000000000000008152600401612ad790612f85565b60405180910390fd5b6001600b5f8373ffffffffffffffffffffffffffffffffffffffff1673ffffffffffffffffffffffffffffffffffffffff1681526020019081526020015f205f6101000a81548160ff02191690831515021790555050565b600a602052805f5260405f205f915054906101000a900460ff1681565b5f600d5f8373ffffffffffffffffffffffffffffffffffffffff1673ffffffffffffffffffffffffffffffffffffffff1681526020019081526020015f205f9054906101000a900460ff169050919050565b5f828284612bb591906133d5565b9150811115612bc2575f80fd5b92915050565b5f828284612bd69190613408565b9150811015612be3575f80fd5b92915050565b5f80fd5b5f73ffffffffffffffffffffffffffffffffffffffff82169050919050565b5f612c1682612bed565b9050919050565b612c2681612c0c565b8114612c30575f80fd5b50565b5f81359050612c4181612c1d565b92915050565b5f60208284031215612c5c57612c5b612be9565b5b5f612c6984828501612c33565b91505092915050565b5f8115159050919050565b612c8681612c72565b82525050565b5f602082019050612c9f5f830184612c7d565b92915050565b5f81519050919050565b5f82825260208201905092915050565b5f5b83811015612cdc578082015181840152602081019050612cc1565b5f8484015250505050565b5f601f19601f8301169050919050565b5f612d0182612ca5565b612d0b8185612caf565b9350612d1b818560208601612cbf565b612d2481612ce7565b840191505092915050565b5f6020820190508181035f830152612d478184612cf7565b905092915050565b5f819050919050565b612d6181612d4f565b8114612d6b575f80fd5b50565b5f81359050612d7c81612d58565b92915050565b5f8060408385031215612d9857612d97612be9565b5b5f612da585828601612c33565b9250506020612db685828601612d6e565b9150509250929050565b612dc981612d4f565b82525050565b5f602082019050612de25f830184612dc0565b92915050565b5f805f60608486031215612dff57612dfe612be9565b5b5f612e0c86828701612c33565b9350506020612e1d86828701612c33565b9250506040612e2e86828701612d6e565b9150509250925092565b5f60ff82169050919050565b612e4d81612e38565b82525050565b5f602082019050612e665f830184612e44565b92915050565b5f60208284031215612e8157612e80612be9565b5b5f612e8e84828501612d6e565b91505092915050565b5f8060408385031215612ead57612eac612be9565b5b5f612eba85828601612d6e565b9250506020612ecb85828601612c33565b9150509250929050565b612ede81612c0c565b82525050565b5f602082019050612ef75f830184612ed5565b92915050565b5f8060408385031215612f1357612f12612be9565b5b5f612f2085828601612c33565b9250506020612f3185828601612c33565b9150509250929050565b7f4f6e6c79206f776e6572000000000000000000000000000000000000000000005f82015250565b5f612f6f600a83612caf565b9150612f7a82612f3b565b602082019050919050565b5f6020820190508181035f830152612f9c81612f63565b9050919050565b7f4e487b71000000000000000000000000000000000000000000000000000000005f52602260045260245ffd5b5f6002820490506001821680612fe757607f821691505b602082108103612ffa57612ff9612fa3565b5b50919050565b7f546f6b656e2069732070617573656400000000000000000000000000000000005f82015250565b5f613034600f83612caf565b915061303f82613000565b602082019050919050565b5f6020820190508181035f83015261306181613028565b9050919050565b7f4164647265737320697320626c61636b6c6973746564000000000000000000005f82015250565b5f61309c601683612caf565b91506130a782613068565b602082019050919050565b5f6020820190508181035f8301526130c981613090565b9050919050565b7f496e73756666696369656e742062616c616e63650000000000000000000000005f82015250565b5f613104601483612caf565b915061310f826130d0565b602082019050919050565b5f6020820190508181035f830152613131816130f8565b9050919050565b7f496e73756666696369656e7420616c6c6f77616e6365000000000000000000005f82015250565b5f61316c601683612caf565b915061317782613138565b602082019050919050565b5f6020820190508181035f83015261319981613160565b9050919050565b7f4f6e6c79206d696e7465720000000000000000000000000000000000000000005f82015250565b5f6131d4600b83612caf565b91506131df826131a0565b602082019050919050565b5f6020820190508181035f830152613201816131c8565b9050919050565b7f4f6e6c79206275726e65720000000000000000000000000000000000000000005f82015250565b5f61323c600b83612caf565b915061324782613208565b602082019050919050565b5f6020820190508181035f83015261326981613230565b9050919050565b7f496e76616c696420736e617073686f74204944000000000000000000000000005f82015250565b5f6132a4601383612caf565b91506132af82613270565b602082019050919050565b5f6020820190508181035f8301526132d181613298565b9050919050565b7f4f6e6c79207061757365720000000000000000000000000000000000000000005f82015250565b5f61330c600b83612caf565b9150613317826132d8565b602082019050919050565b5f6020820190508181035f83015261333981613300565b9050919050565b7f44656372656173656420616c6c6f77616e63652062656c6f77207a65726f00005f82015250565b5f613374601e83612caf565b915061337f82613340565b602082019050919050565b5f6020820190508181035f8301526133a181613368565b9050919050565b7f4e487b71000000000000000000000000000000000000000000000000000000005f52601160045260245ffd5b5f6133df82612d4f565b91506133ea83612d4f565b9250828203905081811115613402576134016133a8565b5b92915050565b5f61341282612d4f565b915061341d83612d4f565b9250828201905080821115613435576134346133a8565b5b9291505056fea26469706673582212201b31ed3815e0c6e8e6b89c4574501ea411a37e17ba4ad9896946f13db8d1135564736f6c63430008140033","linkReferences":{}},"methodIdentifiers":{"addBurner(address)":"f44637ba","addMinter(address)":"983b2d56","addPauser(address)":"82dc1ec4","addToBlacklist(address)":"44337ea1","allowance(address,address)":"dd62ed3e","approve(address,uint256)":"095ea7b3","balanceOf(address)":"70a08231","balanceOfAt(address,uint256)":"4ee2cd7e","blacklisted(address)":"dbac26e9","burn(uint256)":"42966c68","burnFrom(address,uint256)":"79cc6790","burners(address)":"03d41e0e","currentSnapshotId()":"970875ce","decimals()":"313ce567","decreaseAllowance(address,uint256)":"a457c2d7","increaseAllowance(address,uint256)":"39509351","isBlacklisted(address)":"fe575a87","isBurner(address)":"4334614a","isMinter(address)":"aa271e1a","isPauser(address)":"46fbf68e","mint(address,uint256)":"40c10f19","minters(address)":"f46eccc4","name()":"06fdde03","owner()":"8da5cb5b","pause()":"8456cb59","paused()":"5c975abb","pausers(address)":"80f51c12","removeBurner(address)":"02846858","removeFromBlacklist(address)":"537df3b6","removeMinter(address)":"3092afd5","removePauser(address)":"6b2c0f55","snapshot()":"9711715a","snapshotBalance(uint256,address)":"78f2ff2e","snapshotTotalSupply(uint256)":"5ee7a942","symbol()":"95d89b41","totalSupply()":"18160ddd","totalSupplyAt(uint256)":"981b24d0","transfer(address,uint256)":"a9059cbb","transferFrom(address,address,uint256)":"23b872dd","unpause()":"3f4ba83a"},"id":16}