{"abi":[{"type":"constructor","inputs":[{"name":"symbol_","type":"string","internalType":"string"}],"stateMutability":"nonpayable"},{"type":"function","name":"allowance","inputs":[{"name":"","type":"address","internalType":"address"},{"name":"","type":"address","internalType":"address"}],"outputs":[{"name":"","type":"uint256","internalType":"uint256"}],"stateMutability":"view"},{"type":"function","name":"approve","inputs":[{"name":"spender","type":"address","internalType":"address"},{"name":"amount","type":"uint256","internalType":"uint256"}],"outputs":[{"name":"","type":"bool","internalType":"bool"}],"stateMutability":"nonpayable"},{"type":"function","name":"balanceOf","inputs":[{"name":"","type":"address","internalType":"address"}],"outputs":[{"name":"","type":"uint256","internalType":"uint256"}],"stateMutability":"view"},{"type":"function","name":"burn","inputs":[{"name":"amount","type":"uint256","internalType":"uint256"}],"outputs":[],"stateMutability":"nonpayable"},{"type":"function","name":"decimals","inputs":[],"outputs":[{"name":"","type":"uint8","internalType":"uint8"}],"stateMutability":"view"},{"type":"function","name":"mint","inputs":[{"name":"to","type":"address","internalType":"address"},{"name":"amount","type":"uint256","internalType":"uint256"}],"outputs":[],"stateMutability":"nonpayable"},{"type":"function","name":"symbol","inputs":[],"outputs":[{"name":"","type":"string","internalType":"string"}],"stateMutability":"view"},{"type":"function","name":"totalSupply","inputs":[],"outputs":[{"name":"","type":"uint256","internalType":"uint256"}],"stateMutability":"view"},{"type":"function","name":"transfer","inputs":[{"name":"to","type":"address","internalType":"address"},{"name":"amount","type":"uint256","internalType":"uint256"}],"outputs":[{"name":"","type":"bool","internalType":"bool"}],"stateMutability":"nonpayable"},{"type":"function","name":"transferFrom","inputs":[{"name":"from","type":"address","internalType":"address"},{"name":"to","type":"address","internalType":"address"},{"name":"amount","type":"uint256","internalType":"uint256"}],"outputs":[{"name":"","type":"bool","internalType":"bool"}],"stateMutability":"nonpayable"},{"type":"event","name":"Approval","inputs":[{"name":"owner","type":"address","indexed":true,"internalType":"address"},{"name":"spender","type":"address","indexed":true,"internalType":"address"},{"name":"value","type":"uint256","indexed":false,"internalType":"uint256"}],"anonymous":false},{"type":"event","name":"Transfer","inputs":[{"name":"from","type":"address","indexed":true,"internalType":"address"},{"name":"to","type":"address","indexed":true,"internalType":"address"},{"name":"value","type":"uint256","indexed":false,"internalType":"uint256"}],"anonymous":false}],"bytecode":{"object":"0x608060405234801562000010575f80fd5b50604051620014bb380380620014bb8339818101604052810190620000369190620001ee565b805f908162000046919062000474565b50601260015f6101000a81548160ff021916908360ff1602179055505062000558565b5f604051905090565b5f80fd5b5f80fd5b5f80fd5b5f80fd5b5f601f19601f8301169050919050565b7f4e487b71000000000000000000000000000000000000000000000000000000005f52604160045260245ffd5b620000ca8262000082565b810181811067ffffffffffffffff82111715620000ec57620000eb62000092565b5b80604052505050565b5f6200010062000069565b90506200010e8282620000bf565b919050565b5f67ffffffffffffffff82111562000130576200012f62000092565b5b6200013b8262000082565b9050602081019050919050565b5f5b83811015620001675780820151818401526020810190506200014a565b5f8484015250505050565b5f62000188620001828462000113565b620000f5565b905082815260208101848484011115620001a757620001a66200007e565b5b620001b484828562000148565b509392505050565b5f82601f830112620001d357620001d26200007a565b5b8151620001e584826020860162000172565b91505092915050565b5f6020828403121562000206576200020562000072565b5b5f82015167ffffffffffffffff81111562000226576200022562000076565b5b6200023484828501620001bc565b91505092915050565b5f81519050919050565b7f4e487b71000000000000000000000000000000000000000000000000000000005f52602260045260245ffd5b5f60028204905060018216806200028c57607f821691505b602082108103620002a257620002a162000247565b5b50919050565b5f819050815f5260205f209050919050565b5f6020601f8301049050919050565b5f82821b905092915050565b5f60088302620003067fffffffffffffffffffffffffffffffffffffffffffffffffffffffffffffffff82620002c9565b620003128683620002c9565b95508019841693508086168417925050509392505050565b5f819050919050565b5f819050919050565b5f6200035c6200035662000350846200032a565b62000333565b6200032a565b9050919050565b5f819050919050565b62000377836200033c565b6200038f620003868262000363565b848454620002d5565b825550505050565b5f90565b620003a562000397565b620003b28184846200036c565b505050565b5b81811015620003d957620003cd5f826200039b565b600181019050620003b8565b5050565b601f8211156200042857620003f281620002a8565b620003fd84620002ba565b810160208510156200040d578190505b620004256200041c85620002ba565b830182620003b7565b50505b505050565b5f82821c905092915050565b5f6200044a5f19846008026200042d565b1980831691505092915050565b5f62000464838362000439565b9150826002028217905092915050565b6200047f826200023d565b67ffffffffffffffff8111156200049b576200049a62000092565b5b620004a7825462000274565b620004b4828285620003dd565b5f60209050601f831160018114620004ea575f8415620004d5578287015190505b620004e1858262000457565b86555062000550565b601f198416620004fa86620002a8565b5f5b828110156200052357848901518255600182019150602085019450602081019050620004fc565b868310156200054357848901516200053f601f89168262000439565b8355505b6001600288020188555050505b505050505050565b610f5580620005665f395ff3fe608060405234801561000f575f80fd5b506004361061009c575f3560e01c806342966c681161006457806342966c681461015857806370a082311461017457806395d89b41146101a4578063a9059cbb146101c2578063dd62ed3e146101f25761009c565b8063095ea7b3146100a057806318160ddd146100d057806323b872dd146100ee578063313ce5671461011e57806340c10f191461013c575b5f80fd5b6100ba60048036038101906100b59190610bd4565b610222565b6040516100c79190610c2c565b60405180910390f35b6100d861030f565b6040516100e59190610c54565b60405180910390f35b61010860048036038101906101039190610c6d565b610315565b6040516101159190610c2c565b60405180910390f35b610126610661565b6040516101339190610cd8565b60405180910390f35b61015660048036038101906101519190610bd4565b610673565b005b610172600480360381019061016d9190610cf1565b610776565b005b61018e60048036038101906101899190610d1c565b610878565b60405161019b9190610c54565b60405180910390f35b6101ac61088d565b6040516101b99190610dd1565b60405180910390f35b6101dc60048036038101906101d79190610bd4565b610918565b6040516101e99190610c2c565b60405180910390f35b61020c60048036038101906102079190610df1565b610ae1565b6040516102199190610c54565b60405180910390f35b5f8160045f3373ffffffffffffffffffffffffffffffffffffffff1673ffffffffffffffffffffffffffffffffffffffff1681526020019081526020015f205f8573ffffffffffffffffffffffffffffffffffffffff1673ffffffffffffffffffffffffffffffffffffffff1681526020019081526020015f20819055508273ffffffffffffffffffffffffffffffffffffffff163373ffffffffffffffffffffffffffffffffffffffff167f8c5be1e5ebec7d5bd14f71427d1e84f3dd0314c0f7b2291e5b200ac8c7c3b925846040516102fd9190610c54565b60405180910390a36001905092915050565b60025481565b5f8160035f8673ffffffffffffffffffffffffffffffffffffffff1673ffffffffffffffffffffffffffffffffffffffff1681526020019081526020015f2054101561035f575f80fd5b8160045f8673ffffffffffffffffffffffffffffffffffffffff1673ffffffffffffffffffffffffffffffffffffffff1681526020019081526020015f205f3373ffffffffffffffffffffffffffffffffffffffff1673ffffffffffffffffffffffffffffffffffffffff1681526020019081526020015f205410156103e3575f80fd5b61042a60035f8673ffffffffffffffffffffffffffffffffffffffff1673ffffffffffffffffffffffffffffffffffffffff1681526020019081526020015f205483610b01565b60035f8673ffffffffffffffffffffffffffffffffffffffff1673ffffffffffffffffffffffffffffffffffffffff1681526020019081526020015f20819055506104b260035f8573ffffffffffffffffffffffffffffffffffffffff1673ffffffffffffffffffffffffffffffffffffffff1681526020019081526020015f205483610b22565b60035f8573ffffffffffffffffffffffffffffffffffffffff1673ffffffffffffffffffffffffffffffffffffffff1681526020019081526020015f208190555061057560045f8673ffffffffffffffffffffffffffffffffffffffff1673ffffffffffffffffffffffffffffffffffffffff1681526020019081526020015f205f3373ffffffffffffffffffffffffffffffffffffffff1673ffffffffffffffffffffffffffffffffffffffff1681526020019081526020015f205483610b01565b60045f8673ffffffffffffffffffffffffffffffffffffffff1673ffffffffffffffffffffffffffffffffffffffff1681526020019081526020015f205f3373ffffffffffffffffffffffffffffffffffffffff1673ffffffffffffffffffffffffffffffffffffffff1681526020019081526020015f20819055508273ffffffffffffffffffffffffffffffffffffffff168473ffffffffffffffffffffffffffffffffffffffff167fddf252ad1be2c89b69c2b068fc378daa952ba7f163c4a11628f55a4df523b3ef8460405161064e9190610c54565b60405180910390a3600190509392505050565b60015f9054906101000a900460ff1681565b6106ba60035f8473ffffffffffffffffffffffffffffffffffffffff1673ffffffffffffffffffffffffffffffffffffffff1681526020019081526020015f205482610b22565b60035f8473ffffffffffffffffffffffffffffffffffffffff1673ffffffffffffffffffffffffffffffffffffffff1681526020019081526020015f208190555061070760025482610b22565b6002819055508173ffffffffffffffffffffffffffffffffffffffff165f73ffffffffffffffffffffffffffffffffffffffff167fddf252ad1be2c89b69c2b068fc378daa952ba7f163c4a11628f55a4df523b3ef8360405161076a9190610c54565b60405180910390a35050565b6107bd60035f3373ffffffffffffffffffffffffffffffffffffffff1673ffffffffffffffffffffffffffffffffffffffff1681526020019081526020015f205482610b01565b60035f3373ffffffffffffffffffffffffffffffffffffffff1673ffffffffffffffffffffffffffffffffffffffff1681526020019081526020015f208190555061080a60025482610b01565b6002819055505f73ffffffffffffffffffffffffffffffffffffffff163373ffffffffffffffffffffffffffffffffffffffff167fddf252ad1be2c89b69c2b068fc378daa952ba7f163c4a11628f55a4df523b3ef8360405161086d9190610c54565b60405180910390a350565b6003602052805f5260405f205f915090505481565b5f805461089990610e5c565b80601f01602080910402602001604051908101604052809291908181526020018280546108c590610e5c565b80156109105780601f106108e757610100808354040283529160200191610910565b820191905f5260205f20905b8154815290600101906020018083116108f357829003601f168201915b505050505081565b5f8160035f3373ffffffffffffffffffffffffffffffffffffffff1673ffffffffffffffffffffffffffffffffffffffff1681526020019081526020015f20541015610962575f80fd5b6109a960035f3373ffffffffffffffffffffffffffffffffffffffff1673ffffffffffffffffffffffffffffffffffffffff1681526020019081526020015f205483610b01565b60035f3373ffffffffffffffffffffffffffffffffffffffff1673ffffffffffffffffffffffffffffffffffffffff1681526020019081526020015f2081905550610a3160035f8573ffffffffffffffffffffffffffffffffffffffff1673ffffffffffffffffffffffffffffffffffffffff1681526020019081526020015f205483610b22565b60035f8573ffffffffffffffffffffffffffffffffffffffff1673ffffffffffffffffffffffffffffffffffffffff1681526020019081526020015f20819055508273ffffffffffffffffffffffffffffffffffffffff163373ffffffffffffffffffffffffffffffffffffffff167fddf252ad1be2c89b69c2b068fc378daa952ba7f163c4a11628f55a4df523b3ef84604051610acf9190610c54565b60405180910390a36001905092915050565b6004602052815f5260405f20602052805f5260405f205f91509150505481565b5f828284610b0f9190610eb9565b9150811115610b1c575f80fd5b92915050565b5f828284610b309190610eec565b9150811015610b3d575f80fd5b92915050565b5f80fd5b5f73ffffffffffffffffffffffffffffffffffffffff82169050919050565b5f610b7082610b47565b9050919050565b610b8081610b66565b8114610b8a575f80fd5b50565b5f81359050610b9b81610b77565b92915050565b5f819050919050565b610bb381610ba1565b8114610bbd575f80fd5b50565b5f81359050610bce81610baa565b92915050565b5f8060408385031215610bea57610be9610b43565b5b5f610bf785828601610b8d565b9250506020610c0885828601610bc0565b9150509250929050565b5f8115159050919050565b610c2681610c12565b82525050565b5f602082019050610c3f5f830184610c1d565b92915050565b610c4e81610ba1565b82525050565b5f602082019050610c675f830184610c45565b92915050565b5f805f60608486031215610c8457610c83610b43565b5b5f610c9186828701610b8d565b9350506020610ca286828701610b8d565b9250506040610cb386828701610bc0565b9150509250925092565b5f60ff82169050919050565b610cd281610cbd565b82525050565b5f602082019050610ceb5f830184610cc9565b92915050565b5f60208284031215610d0657610d05610b43565b5b5f610d1384828501610bc0565b91505092915050565b5f60208284031215610d3157610d30610b43565b5b5f610d3e84828501610b8d565b91505092915050565b5f81519050919050565b5f82825260208201905092915050565b5f5b83811015610d7e578082015181840152602081019050610d63565b5f8484015250505050565b5f601f19601f8301169050919050565b5f610da382610d47565b610dad8185610d51565b9350610dbd818560208601610d61565b610dc681610d89565b840191505092915050565b5f6020820190508181035f830152610de98184610d99565b905092915050565b5f8060408385031215610e0757610e06610b43565b5b5f610e1485828601610b8d565b9250506020610e2585828601610b8d565b9150509250929050565b7f4e487b71000000000000000000000000000000000000000000000000000000005f52602260045260245ffd5b5f6002820490506001821680610e7357607f821691505b602082108103610e8657610e85610e2f565b5b50919050565b7f4e487b71000000000000000000000000000000000000000000000000000000005f52601160045260245ffd5b5f610ec382610ba1565b9150610ece83610ba1565b9250828203905081811115610ee657610ee5610e8c565b5b92915050565b5f610ef682610ba1565b9150610f0183610ba1565b9250828201905080821115610f1957610f18610e8c565b5b9291505056fea26469706673582212207446aa127a6279c5fbd81cf946e91939a97d77c70882807028da2ed3b651513564736f6c63430008140033","linkReferences":{}},"methodIdentifiers":{"allowance(address,address)":"dd62ed3e","approve(address,uint256)":"095ea7b3","balanceOf(address)":"70a08231","burn(uint256)":"42966c68","decimals()":"313ce567","mint(address,uint256)":"40c10f19","symbol()":"95d89b41","totalSupply()":"18160ddd","transfer(address,uint256)":"a9059cbb","transferFrom(address,address,uint256)":"23b872dd"},"id":22}